{
  "contractName": "SimplePaymentChannel",
  "abi": [
    {
      "constant": true,
      "inputs": [],
      "name": "expiration",
      "outputs": [
        {
          "name": "",
          "type": "uint256"
        }
      ],
      "payable": false,
      "stateMutability": "view",
      "type": "function"
    },
    {
      "constant": true,
      "inputs": [],
      "name": "recipient",
      "outputs": [
        {
          "name": "",
          "type": "address"
        }
      ],
      "payable": false,
      "stateMutability": "view",
      "type": "function"
    },
    {
      "constant": true,
      "inputs": [],
      "name": "sender",
      "outputs": [
        {
          "name": "",
          "type": "address"
        }
      ],
      "payable": false,
      "stateMutability": "view",
      "type": "function"
    },
    {
      "inputs": [
        {
          "name": "_recipient",
          "type": "address"
        },
        {
          "name": "_duration",
          "type": "uint256"
        }
      ],
      "payable": true,
      "stateMutability": "payable",
      "type": "constructor"
    },
    {
      "anonymous": false,
      "inputs": [
        {
          "indexed": false,
          "name": "sender",
          "type": "address"
        },
        {
          "indexed": false,
          "name": "recipient",
          "type": "address"
        },
        {
          "indexed": false,
          "name": "expiration",
          "type": "uint256"
        },
        {
          "indexed": false,
          "name": "deposit",
          "type": "uint256"
        }
      ],
      "name": "ChannelOpened",
      "type": "event"
    },
    {
      "anonymous": false,
      "inputs": [
        {
          "indexed": false,
          "name": "senderBalance",
          "type": "uint256"
        },
        {
          "indexed": false,
          "name": "recipientBalance",
          "type": "uint256"
        }
      ],
      "name": "ChannelClosed",
      "type": "event"
    },
    {
      "constant": false,
      "inputs": [
        {
          "name": "_balance",
          "type": "uint256"
        },
        {
          "name": "_signedMessage",
          "type": "bytes"
        }
      ],
      "name": "closeChannel",
      "outputs": [],
      "payable": false,
      "stateMutability": "nonpayable",
      "type": "function"
    },
    {
      "constant": false,
      "inputs": [
        {
          "name": "_expiration",
          "type": "uint256"
        }
      ],
      "name": "extendExpiration",
      "outputs": [],
      "payable": false,
      "stateMutability": "nonpayable",
      "type": "function"
    },
    {
      "constant": false,
      "inputs": [],
      "name": "claimTimeout",
      "outputs": [],
      "payable": false,
      "stateMutability": "nonpayable",
      "type": "function"
    }
  ],
  "bytecode": "0x608060405260405160408061096c8339810180604052604081101561002357600080fd5b81019080805190602001909291908051906020019092919050505060003411151561004d57600080fd5b8173ffffffffffffffffffffffffffffffffffffffff163373ffffffffffffffffffffffffffffffffffffffff161415151561008857600080fd5b336000806101000a81548173ffffffffffffffffffffffffffffffffffffffff021916908373ffffffffffffffffffffffffffffffffffffffff16021790555081600160006101000a81548173ffffffffffffffffffffffffffffffffffffffff021916908373ffffffffffffffffffffffffffffffffffffffff1602179055508042016002819055507f9957eac353f4e194b7faa928965f2dfdedd22f864e067b5b78f98d50157c2df56000809054906101000a900473ffffffffffffffffffffffffffffffffffffffff16600160009054906101000a900473ffffffffffffffffffffffffffffffffffffffff1660025434604051808573ffffffffffffffffffffffffffffffffffffffff1673ffffffffffffffffffffffffffffffffffffffff1681526020018473ffffffffffffffffffffffffffffffffffffffff1673ffffffffffffffffffffffffffffffffffffffff16815260200183815260200182815260200194505050505060405180910390a1505061075d8061020f6000396000f3fe608060405234801561001057600080fd5b506004361061007f576000357c0100000000000000000000000000000000000000000000000000000000900480630a114a70146100845780630dd703d9146100b25780630e1da6c3146101775780634665096d1461018157806366d003ac1461019f57806367e404ce146101e9575b600080fd5b6100b06004803603602081101561009a57600080fd5b8101908080359060200190929190505050610233565b005b610175600480360360408110156100c857600080fd5b8101908080359060200190929190803590602001906401000000008111156100ef57600080fd5b82018360208201111561010157600080fd5b8035906020019184600183028401116401000000008311171561012357600080fd5b91908080601f016020809104026020016040519081016040528093929190818152602001838380828437600081840152601f19601f8201169050808301925050505050505091929192905050506102a8565b005b61017f610470565b005b6101896104bb565b6040518082815260200191505060405180910390f35b6101a76104c1565b604051808273ffffffffffffffffffffffffffffffffffffffff1673ffffffffffffffffffffffffffffffffffffffff16815260200191505060405180910390f35b6101f16104e7565b604051808273ffffffffffffffffffffffffffffffffffffffff1673ffffffffffffffffffffffffffffffffffffffff16815260200191505060405180910390f35b6000809054906101000a900473ffffffffffffffffffffffffffffffffffffffff1673ffffffffffffffffffffffffffffffffffffffff163373ffffffffffffffffffffffffffffffffffffffff1614151561028e57600080fd5b6002548111151561029e57600080fd5b8060028190555050565b600160009054906101000a900473ffffffffffffffffffffffffffffffffffffffff1673ffffffffffffffffffffffffffffffffffffffff163373ffffffffffffffffffffffffffffffffffffffff1614151561030457600080fd5b61030e828261050c565b151561031957600080fd5b600082905060008090503073ffffffffffffffffffffffffffffffffffffffff1631841115610361573073ffffffffffffffffffffffffffffffffffffffff1631915061038e565b61038b823073ffffffffffffffffffffffffffffffffffffffff16316105e590919063ffffffff16565b90505b600160009054906101000a900473ffffffffffffffffffffffffffffffffffffffff1673ffffffffffffffffffffffffffffffffffffffff166108fc839081150290604051600060405180830381858888f193505050501580156103f6573d6000803e3d6000fd5b507f1273b19bd37db7541ec10aebcb7899427619b2685565bd3c7b184c2732f8118e8183604051808381526020018281526020019250505060405180910390a16000809054906101000a900473ffffffffffffffffffffffffffffffffffffffff1673ffffffffffffffffffffffffffffffffffffffff16ff5b600254421015151561048157600080fd5b6000809054906101000a900473ffffffffffffffffffffffffffffffffffffffff1673ffffffffffffffffffffffffffffffffffffffff16ff5b60025481565b600160009054906101000a900473ffffffffffffffffffffffffffffffffffffffff1681565b6000809054906101000a900473ffffffffffffffffffffffffffffffffffffffff1681565b6000806105813085604051602001808373ffffffffffffffffffffffffffffffffffffffff1673ffffffffffffffffffffffffffffffffffffffff166c010000000000000000000000000281526014018281526020019250505060405160208183030381529060405280519060200120610607565b90506000809054906101000a900473ffffffffffffffffffffffffffffffffffffffff1673ffffffffffffffffffffffffffffffffffffffff166105c5828561065f565b73ffffffffffffffffffffffffffffffffffffffff161491505092915050565b60008282111515156105f657600080fd5b600082840390508091505092915050565b60008160405160200180807f19457468657265756d205369676e6564204d6573736167653a0a333200000000815250601c01828152602001915050604051602081830303815290604052805190602001209050919050565b60008060008061066e856106ec565b80935081945082955050505060018684848460405160008152602001604052604051808581526020018460ff1660ff1681526020018381526020018281526020019450505050506020604051602081039080840390855afa1580156106d7573d6000803e3d6000fd5b50505060206040510351935050505092915050565b60008060006041845114151561070157600080fd5b60008060006020870151925060408701519150606087015160001a9050808383955095509550505050919390925056fea165627a7a7230582073b85192b4ef6a8c6e2551ad803ea6e2c50a2ab6cd24e15356bf2525697736c40029",
  "source": "pragma solidity ^0.5.0;\n\nimport \"openzeppelin-solidity/contracts/math/SafeMath.sol\";\n\n/**\n * @title SimplePaymentChannel\n * @author Luis Videla\n *\n * @dev Ethereum payment channels allow for off-chain transactions with an on-chain\n * settlement. In this implementation, a party (sender) can open a channel with a \n * deposit, expiration, and recipient. The sender can then sign transactions off-chain\n * and send them to the recipient, who can submit one of these signed transactions to \n * chain to close and settle the channel.\n */\ncontract SimplePaymentChannel {\n    using SafeMath for uint256;\n    // using ECRecovery for bytes32;\n\n    //============================================================================\n    // EVENTS\n    //============================================================================\n\n    event ChannelOpened(address sender, address recipient, uint expiration, uint256 deposit);\n    event ChannelClosed(uint256 senderBalance, uint256 recipientBalance);\n\n    // Creator of channel\n    address payable public sender;\n    // Recipient of channel\n    address payable public recipient;\n    // When sender can close the channel\n    uint256 public expiration;\n\n    //============================================================================\n    // PUBLIC FUNCTIONS\n    //============================================================================\n\n    /**\n    * @dev Constructor\n    * @param _recipient address Address of the receiving party\n    * @param _duration uint256 Time period past creation that defines expiration\n    */\n    constructor(address payable _recipient, uint256 _duration) public payable {\n        // sanity checks\n        require(msg.value > 0);\n        require(msg.sender != _recipient);\n\n        sender = msg.sender;\n        recipient = _recipient;\n        expiration = now + _duration;\n\n        emit ChannelOpened(sender, recipient, expiration, msg.value);\n    }\n\n    /**\n    * @dev Close a channel with a signed message from the sender\n    * @param _balance uint256 The balance agreed to by the sender in their signed message\n    * @param _signedMessage bytes The signed hash of the balance by the sender\n    */\n    function closeChannel(uint256 _balance, bytes memory _signedMessage) public {\n        // only recipient can call closeChannel\n        require(msg.sender == recipient);\n        require(isValidSignature(_balance, _signedMessage));\n\n        // temp vars for calculating sender and recipient remittances\n        uint256 balance = _balance;\n        uint256 remainder = 0;\n\n        // if _balance > address(this).balance, send address(this).balance to recipient\n        if (_balance > address(this).balance) {\n            balance = address(this).balance;\n        } else {\n            remainder = address(this).balance.sub(balance);\n        }\n\n        // remit payment to recipient\n        recipient.transfer(balance);\n\n        emit ChannelClosed(remainder, balance);\n\n        // remit remainder to sender\n        selfdestruct(sender);\n    }\n\n    /**\n    * @dev Extend the expiration date of the channel\n    * @param _expiration uint256 Updated expiration date\n    */\n    function extendExpiration(uint256 _expiration) public {\n        // only sender can call extendExpiration\n        require(msg.sender == sender);\n        require(_expiration > expiration);\n\n        // update expiration\n        expiration = _expiration;\n    }\n\n    /**\n    * @dev Allows sender to claim channel balance if expired\n    */\n    function claimTimeout() public {\n        // must be beyond expiration date\n        require(now >= expiration);\n\n        // remit payment to sender\n        selfdestruct(sender);\n    }\n\n    //============================================================================\n    // INTERNAL FUNCTIONS\n    //============================================================================\n\n    /**\n    * @dev Derive and verify sender address from signed message and message hash\n    * @param _balance uint256 The balance agreed to by the sender in their signed message\n    * @param _signedMessage bytes The signed hash of the balance by the sender\n    */\n    function isValidSignature(uint256 _balance, bytes memory _signedMessage)\n        internal\n        view\n        returns (bool)\n    {\n        bytes32 message = prefixed(keccak256(abi.encodePacked(address(this), _balance)));\n\n        // check that the signature is from the payment sender\n        // return message.recover(_signedMessage) == sender;\n\n        // Check that the signature is from the payment sender.\n        return recoverSigner(message, _signedMessage) == sender;\n    }\n\n    // \n    function recoverSigner(bytes32 message, bytes memory sig)\n        internal\n        pure\n        returns (address)\n    {\n        uint8 v;\n        bytes32 r;\n        bytes32 s;\n\n        (v, r, s) = splitSignature(sig);\n\n        return ecrecover(message, v, r, s);\n    }\n\n    // \n    function splitSignature(bytes memory sig)\n        internal\n        pure\n        returns (uint8, bytes32, bytes32)\n    {\n        require(sig.length == 65);\n\n        bytes32 r;\n        bytes32 s;\n        uint8 v;\n\n        assembly {\n            // first 32 bytes, after the length prefix\n            r := mload(add(sig, 32))\n            // second 32 bytes\n            s := mload(add(sig, 64))\n            // final byte (first byte of the next 32 bytes)\n            v := byte(0, mload(add(sig, 96)))\n        }\n\n        return (v, r, s);\n    }\n\n\n    /**\n    * @dev Builds a prefixed hash to mimic the behavior of eth_sign\n    * @param _hash bytes32 Message hash to be prefixed\n    */\n    function prefixed(bytes32 _hash)\n        internal\n        pure\n        returns (bytes32)\n    {\n        return keccak256(abi.encodePacked(\"\\x19Ethereum Signed Message:\\n32\", _hash));\n    }\n}",
  "sourcePath": "/Users/luisvidela/Development/blockchain/simple-payment-channel/contracts/SimplePaymentChannel.sol",
  "compiler": {
    "name": "solc",
    "version": "0.5.2+commit.1df8f40c.Emscripten.clang"
  },
  "schemaVersion": "3.0.6",
  "updatedAt": "2019-04-15T14:43:07.563Z",
  "devdoc": {
    "author": "Luis Videla",
    "details": "Ethereum payment channels allow for off-chain transactions with an on-chain settlement. In this implementation, a party (sender) can open a channel with a  deposit, expiration, and recipient. The sender can then sign transactions off-chain and send them to the recipient, who can submit one of these signed transactions to  chain to close and settle the channel.",
    "methods": {
      "claimTimeout()": {
        "details": "Allows sender to claim channel balance if expired"
      },
      "closeChannel(uint256,bytes)": {
        "details": "Close a channel with a signed message from the sender",
        "params": {
          "_balance": "uint256 The balance agreed to by the sender in their signed message",
          "_signedMessage": "bytes The signed hash of the balance by the sender"
        }
      },
      "constructor": {
        "details": "Constructor",
        "params": {
          "_duration": "uint256 Time period past creation that defines expiration",
          "_recipient": "address Address of the receiving party"
        }
      },
      "extendExpiration(uint256)": {
        "details": "Extend the expiration date of the channel",
        "params": {
          "_expiration": "uint256 Updated expiration date"
        }
      }
    },
    "title": "SimplePaymentChannel"
  },
  "userdoc": {
    "methods": {}
  }
}